{
  "contractName": "InsuranceContract_lixi",
  "abi": [
    {
      "inputs": [
        {
          "internalType": "address",
          "name": "_insurance",
          "type": "address"
        }
      ],
      "stateMutability": "nonpayable",
      "type": "constructor"
    },
    {
      "anonymous": false,
      "inputs": [
        {
          "indexed": true,
          "internalType": "string",
          "name": "eventType",
          "type": "string"
        },
        {
          "indexed": false,
          "internalType": "address",
          "name": "patientAddr",
          "type": "address"
        }
      ],
      "name": "InsPatientEvnt",
      "type": "event"
    },
    {
      "anonymous": false,
      "inputs": [
        {
          "indexed": true,
          "internalType": "string",
          "name": "eventType",
          "type": "string"
        },
        {
          "indexed": false,
          "internalType": "address",
          "name": "patientAddr",
          "type": "address"
        },
        {
          "indexed": false,
          "internalType": "uint256",
          "name": "recordID",
          "type": "uint256"
        },
        {
          "indexed": false,
          "internalType": "uint256",
          "name": "day",
          "type": "uint256"
        },
        {
          "indexed": false,
          "internalType": "uint256",
          "name": "money",
          "type": "uint256"
        }
      ],
      "name": "InsRecordEvnt",
      "type": "event"
    },
    {
      "inputs": [
        {
          "internalType": "address",
          "name": "_hospital",
          "type": "address"
        }
      ],
      "name": "setHospital",
      "outputs": [],
      "stateMutability": "nonpayable",
      "type": "function"
    },
    {
      "inputs": [],
      "name": "getInsurance",
      "outputs": [
        {
          "internalType": "address",
          "name": "",
          "type": "address"
        }
      ],
      "stateMutability": "view",
      "type": "function",
      "constant": true
    },
    {
      "inputs": [],
      "name": "getHospital",
      "outputs": [
        {
          "internalType": "address",
          "name": "",
          "type": "address"
        }
      ],
      "stateMutability": "view",
      "type": "function",
      "constant": true
    },
    {
      "inputs": [
        {
          "internalType": "address",
          "name": "patientAddr",
          "type": "address"
        },
        {
          "internalType": "string",
          "name": "name",
          "type": "string"
        },
        {
          "internalType": "string",
          "name": "addr",
          "type": "string"
        }
      ],
      "name": "insPatient",
      "outputs": [],
      "stateMutability": "nonpayable",
      "type": "function"
    },
    {
      "inputs": [
        {
          "internalType": "address",
          "name": "patientAddr",
          "type": "address"
        }
      ],
      "name": "isPatientExist",
      "outputs": [
        {
          "internalType": "bool",
          "name": "",
          "type": "bool"
        }
      ],
      "stateMutability": "view",
      "type": "function",
      "constant": true
    },
    {
      "inputs": [
        {
          "internalType": "address",
          "name": "addr",
          "type": "address"
        }
      ],
      "name": "searchPatient",
      "outputs": [
        {
          "internalType": "string",
          "name": "name",
          "type": "string"
        }
      ],
      "stateMutability": "view",
      "type": "function",
      "constant": true
    },
    {
      "inputs": [
        {
          "internalType": "address",
          "name": "addr",
          "type": "address"
        },
        {
          "internalType": "uint256",
          "name": "index",
          "type": "uint256"
        }
      ],
      "name": "searchOutPatient",
      "outputs": [
        {
          "internalType": "string",
          "name": "symptom",
          "type": "string"
        },
        {
          "internalType": "string",
          "name": "casue",
          "type": "string"
        },
        {
          "internalType": "uint256",
          "name": "day",
          "type": "uint256"
        },
        {
          "internalType": "uint256",
          "name": "money",
          "type": "uint256"
        },
        {
          "internalType": "bool",
          "name": "",
          "type": "bool"
        },
        {
          "internalType": "bool",
          "name": "",
          "type": "bool"
        }
      ],
      "stateMutability": "view",
      "type": "function",
      "constant": true
    },
    {
      "inputs": [
        {
          "internalType": "address",
          "name": "patientAddr",
          "type": "address"
        },
        {
          "internalType": "string",
          "name": "symptom",
          "type": "string"
        },
        {
          "internalType": "string",
          "name": "cause",
          "type": "string"
        },
        {
          "internalType": "uint256",
          "name": "day",
          "type": "uint256"
        }
      ],
      "name": "insRecord",
      "outputs": [
        {
          "internalType": "uint256",
          "name": "",
          "type": "uint256"
        }
      ],
      "stateMutability": "nonpayable",
      "type": "function"
    },
    {
      "inputs": [
        {
          "internalType": "address",
          "name": "patientAddr",
          "type": "address"
        },
        {
          "internalType": "uint256",
          "name": "recordID",
          "type": "uint256"
        }
      ],
      "name": "queryRecordCause",
      "outputs": [
        {
          "internalType": "string",
          "name": "",
          "type": "string"
        }
      ],
      "stateMutability": "view",
      "type": "function",
      "constant": true
    },
    {
      "inputs": [
        {
          "internalType": "address",
          "name": "patientAddr",
          "type": "address"
        },
        {
          "internalType": "uint256",
          "name": "recordID",
          "type": "uint256"
        }
      ],
      "name": "queryRecordDays",
      "outputs": [
        {
          "internalType": "uint256",
          "name": "",
          "type": "uint256"
        }
      ],
      "stateMutability": "view",
      "type": "function",
      "constant": true
    },
    {
      "inputs": [
        {
          "internalType": "address",
          "name": "patientAddr",
          "type": "address"
        },
        {
          "internalType": "uint256",
          "name": "recordID",
          "type": "uint256"
        }
      ],
      "name": "queryRecordMoney",
      "outputs": [
        {
          "internalType": "uint256",
          "name": "",
          "type": "uint256"
        }
      ],
      "stateMutability": "view",
      "type": "function",
      "constant": true
    },
    {
      "inputs": [
        {
          "internalType": "string",
          "name": "medicineName",
          "type": "string"
        },
        {
          "internalType": "uint256",
          "name": "medicinePrice",
          "type": "uint256"
        },
        {
          "internalType": "uint256",
          "name": "amount",
          "type": "uint256"
        }
      ],
      "name": "addMedicine",
      "outputs": [],
      "stateMutability": "nonpayable",
      "type": "function"
    },
    {
      "inputs": [
        {
          "internalType": "address",
          "name": "patientAddr",
          "type": "address"
        },
        {
          "internalType": "string",
          "name": "name",
          "type": "string"
        },
        {
          "internalType": "uint256",
          "name": "number",
          "type": "uint256"
        }
      ],
      "name": "EnterMedicine",
      "outputs": [],
      "stateMutability": "nonpayable",
      "type": "function"
    },
    {
      "inputs": [
        {
          "internalType": "string",
          "name": "name",
          "type": "string"
        }
      ],
      "name": "searchMedicine",
      "outputs": [
        {
          "internalType": "uint256",
          "name": "number",
          "type": "uint256"
        }
      ],
      "stateMutability": "view",
      "type": "function",
      "constant": true
    },
    {
      "inputs": [
        {
          "internalType": "address",
          "name": "patientAddr",
          "type": "address"
        }
      ],
      "name": "GiveMedicine",
      "outputs": [
        {
          "internalType": "string[]",
          "name": "",
          "type": "string[]"
        },
        {
          "internalType": "uint256[]",
          "name": "",
          "type": "uint256[]"
        }
      ],
      "stateMutability": "view",
      "type": "function",
      "constant": true
    },
    {
      "inputs": [
        {
          "internalType": "address",
          "name": "addr",
          "type": "address"
        }
      ],
      "name": "BuyInsurance",
      "outputs": [],
      "stateMutability": "nonpayable",
      "type": "function"
    },
    {
      "inputs": [
        {
          "internalType": "address",
          "name": "addr",
          "type": "address"
        }
      ],
      "name": "searchInsurance",
      "outputs": [
        {
          "internalType": "bool",
          "name": "",
          "type": "bool"
        }
      ],
      "stateMutability": "view",
      "type": "function",
      "constant": true
    },
    {
      "inputs": [
        {
          "internalType": "address",
          "name": "addr",
          "type": "address"
        }
      ],
      "name": "Paymoney",
      "outputs": [],
      "stateMutability": "nonpayable",
      "type": "function"
    },
    {
      "inputs": [
        {
          "internalType": "address",
          "name": "addr",
          "type": "address"
        },
        {
          "internalType": "uint256",
          "name": "record",
          "type": "uint256"
        }
      ],
      "name": "claim",
      "outputs": [
        {
          "internalType": "uint256",
          "name": "money",
          "type": "uint256"
        }
      ],
      "stateMutability": "view",
      "type": "function",
      "constant": true
    },
    {
      "inputs": [
        {
          "internalType": "address",
          "name": "addr",
          "type": "address"
        }
      ],
      "name": "backMoney",
      "outputs": [],
      "stateMutability": "nonpayable",
      "type": "function"
    }
  ],
  "bytecode": "0x60806040523480156200001157600080fd5b50604051620030a5380380620030a5833981810160405281019062000037919062000096565b80600160006101000a81548173ffffffffffffffffffffffffffffffffffffffff021916908373ffffffffffffffffffffffffffffffffffffffff1602179055505062000110565b6000815190506200009081620000f6565b92915050565b600060208284031215620000a957600080fd5b6000620000b9848285016200007f565b91505092915050565b6000620000cf82620000d6565b9050919050565b600073ffffffffffffffffffffffffffffffffffffffff82169050919050565b6200010181620000c2565b81146200010d57600080fd5b50565b612f8580620001206000396000f3fe608060405234801561001057600080fd5b506004361061012c5760003560e01c806388cb8fa1116100ad578063c387ba0611610071578063c387ba06146103a7578063c85dd54a146103d7578063dec1c904146103f3578063e508c9571461040f578063ef6fe6b41461042b5761012c565b806388cb8fa1146102c6578063aad3ec96146102fb578063b5a4d82d1461032b578063bfde8ac61461035b578063c29205991461038b5761012c565b806338180bc6116100f457806338180bc6146101d557806338ef8c3e1461020557806354a0db0e146102365780637db3975c146102665780638595acaa146102965761012c565b806303b3790314610131578063075619471461014d57806318769d4614610169578063209784fc14610187578063267a8da0146101b7575b600080fd5b61014b6004803603810190610146919061226f565b610447565b005b61016760048036038101906101629190612381565b6106bf565b005b610171610978565b60405161017e9190612911565b60405180910390f35b6101a1600480360381019061019c9190612246565b6109a1565b6040516101ae91906129a8565b60405180910390f35b6101bf6109fa565b6040516101cc9190612911565b60405180910390f35b6101ef60048036038101906101ea9190612424565b610a24565b6040516101fc9190612b14565b60405180910390f35b61021f600480360381019061021a9190612246565b610a4f565b60405161022d929190612971565b60405180910390f35b610250600480360381019061024b91906123e8565b610c4c565b60405161025d91906129c3565b60405180910390f35b610280600480360381019061027b91906123e8565b610f06565b60405161028d9190612b14565b60405180910390f35b6102b060048036038101906102ab91906122ee565b611139565b6040516102bd9190612b14565b60405180910390f35b6102e060048036038101906102db91906123e8565b61151c565b6040516102f2969594939291906129e5565b60405180910390f35b610315600480360381019061031091906123e8565b61184d565b6040516103229190612b14565b60405180910390f35b610345600480360381019061034091906123e8565b6119cd565b6040516103529190612b14565b60405180910390f35b61037560048036038101906103709190612246565b611c00565b60405161038291906129c3565b60405180910390f35b6103a560048036038101906103a09190612246565b611cd4565b005b6103c160048036038101906103bc9190612246565b611dc2565b6040516103ce91906129a8565b60405180910390f35b6103f160048036038101906103ec9190612246565b611e33565b005b61040d60048036038101906104089190612246565b611e91565b005b61042960048036038101906104249190612465565b611f64565b005b61044560048036038101906104409190612246565b6120b3565b005b60008054906101000a900473ffffffffffffffffffffffffffffffffffffffff1673ffffffffffffffffffffffffffffffffffffffff163373ffffffffffffffffffffffffffffffffffffffff16146104d5576040517f08c379a00000000000000000000000000000000000000000000000000000000081526004016104cc90612ad4565b60405180910390fd5b6104de836109a1565b1561051e576040517f08c379a000000000000000000000000000000000000000000000000000000000815260040161051590612ab4565b60405180910390fd5b81600260008573ffffffffffffffffffffffffffffffffffffffff1673ffffffffffffffffffffffffffffffffffffffff1681526020019081526020016000206000019080519060200190610574929190612111565b5080600260008573ffffffffffffffffffffffffffffffffffffffff1673ffffffffffffffffffffffffffffffffffffffff16815260200190815260200160002060010190805190602001906105cb929190612111565b506000600260008573ffffffffffffffffffffffffffffffffffffffff1673ffffffffffffffffffffffffffffffffffffffff168152602001908152602001600020600201819055506001600260008573ffffffffffffffffffffffffffffffffffffffff1673ffffffffffffffffffffffffffffffffffffffff16815260200190815260200160002060060160006101000a81548160ff02191690831515021790555060405161067b906128e7565b60405180910390207fddf20d3c0d812642f34ae35bf175fed561c5ac95cac8220b274a25648cea121f846040516106b29190612911565b60405180910390a2505050565b60008054906101000a900473ffffffffffffffffffffffffffffffffffffffff1673ffffffffffffffffffffffffffffffffffffffff163373ffffffffffffffffffffffffffffffffffffffff161461074d576040517f08c379a000000000000000000000000000000000000000000000000000000000815260040161074490612ad4565b60405180910390fd5b610756836109a1565b610795576040517f08c379a000000000000000000000000000000000000000000000000000000000815260040161078c90612a74565b60405180910390fd5b600115156003836040516107a991906128d0565b908152602001604051809103902060030160009054906101000a900460ff161515146107d457600080fd5b806003836040516107e591906128d0565b908152602001604051809103902060020154101561080257600080fd5b8060038360405161081391906128d0565b90815260200160405180910390206002015461082f9190612d1b565b60038360405161083f91906128d0565b908152602001604051809103902060020181905550600260008473ffffffffffffffffffffffffffffffffffffffff1673ffffffffffffffffffffffffffffffffffffffff168152602001908152602001600020600401829080600181540180825580915050600190039060005260206000200160009091909190915090805190602001906108cf929190612111565b50600260008473ffffffffffffffffffffffffffffffffffffffff1673ffffffffffffffffffffffffffffffffffffffff168152602001908152602001600020600501620186a08260038560405161092791906128d0565b9081526020016040518091039020600101546109439190612cc1565b61094d9190612cc1565b9080600181540180825580915050600190039060005260206000200160009091909190915055505050565b60008060009054906101000a900473ffffffffffffffffffffffffffffffffffffffff16905090565b6000600260008373ffffffffffffffffffffffffffffffffffffffff1673ffffffffffffffffffffffffffffffffffffffff16815260200190815260200160002060060160009054906101000a900460ff169050919050565b6000600160009054906101000a900473ffffffffffffffffffffffffffffffffffffffff16905090565b6000600382604051610a3691906128d0565b9081526020016040518091039020600201549050919050565b606080610a5b836109a1565b610a9a576040517f08c379a0000000000000000000000000000000000000000000000000000000008152600401610a9190612a74565b60405180910390fd5b600260008473ffffffffffffffffffffffffffffffffffffffff1673ffffffffffffffffffffffffffffffffffffffff168152602001908152602001600020600401600260008573ffffffffffffffffffffffffffffffffffffffff1673ffffffffffffffffffffffffffffffffffffffff16815260200190815260200160002060050181805480602002602001604051908101604052809291908181526020016000905b82821015610beb578382906000526020600020018054610b5e90612dd9565b80601f0160208091040260200160405190810160405280929190818152602001828054610b8a90612dd9565b8015610bd75780601f10610bac57610100808354040283529160200191610bd7565b820191906000526020600020905b815481529060010190602001808311610bba57829003601f168201915b505050505081526020019060010190610b3f565b50505050915080805480602002602001604051908101604052809291908181526020018280548015610c3c57602002820191906000526020600020905b815481526020019060010190808311610c28575b5050505050905091509150915091565b606060008054906101000a900473ffffffffffffffffffffffffffffffffffffffff1673ffffffffffffffffffffffffffffffffffffffff163373ffffffffffffffffffffffffffffffffffffffff161480610cf55750600160009054906101000a900473ffffffffffffffffffffffffffffffffffffffff1673ffffffffffffffffffffffffffffffffffffffff163373ffffffffffffffffffffffffffffffffffffffff16145b610d34576040517f08c379a0000000000000000000000000000000000000000000000000000000008152600401610d2b90612a54565b60405180910390fd5b610d3d836109a1565b610d7c576040517f08c379a0000000000000000000000000000000000000000000000000000000008152600401610d7390612a74565b60405180910390fd5b600260008473ffffffffffffffffffffffffffffffffffffffff1673ffffffffffffffffffffffffffffffffffffffff168152602001908152602001600020600301600083815260200190815260200160002060040160009054906101000a900460ff16610e1f576040517f08c379a0000000000000000000000000000000000000000000000000000000008152600401610e1690612af4565b60405180910390fd5b600260008473ffffffffffffffffffffffffffffffffffffffff1673ffffffffffffffffffffffffffffffffffffffff16815260200190815260200160002060030160008381526020019081526020016000206000018054610e8090612dd9565b80601f0160208091040260200160405190810160405280929190818152602001828054610eac90612dd9565b8015610ef95780601f10610ece57610100808354040283529160200191610ef9565b820191906000526020600020905b815481529060010190602001808311610edc57829003601f168201915b5050505050905092915050565b60008060009054906101000a900473ffffffffffffffffffffffffffffffffffffffff1673ffffffffffffffffffffffffffffffffffffffff163373ffffffffffffffffffffffffffffffffffffffff161480610fb05750600160009054906101000a900473ffffffffffffffffffffffffffffffffffffffff1673ffffffffffffffffffffffffffffffffffffffff163373ffffffffffffffffffffffffffffffffffffffff16145b610fef576040517f08c379a0000000000000000000000000000000000000000000000000000000008152600401610fe690612a54565b60405180910390fd5b610ff8836109a1565b611037576040517f08c379a000000000000000000000000000000000000000000000000000000000815260040161102e90612a74565b60405180910390fd5b600260008473ffffffffffffffffffffffffffffffffffffffff1673ffffffffffffffffffffffffffffffffffffffff168152602001908152602001600020600301600083815260200190815260200160002060040160009054906101000a900460ff166110da576040517f08c379a00000000000000000000000000000000000000000000000000000000081526004016110d190612af4565b60405180910390fd5b600260008473ffffffffffffffffffffffffffffffffffffffff1673ffffffffffffffffffffffffffffffffffffffff168152602001908152602001600020600301600083815260200190815260200160002060020154905092915050565b60008060009054906101000a900473ffffffffffffffffffffffffffffffffffffffff1673ffffffffffffffffffffffffffffffffffffffff163373ffffffffffffffffffffffffffffffffffffffff16146111ca576040517f08c379a00000000000000000000000000000000000000000000000000000000081526004016111c190612ad4565b60405180910390fd5b6111d3856109a1565b611212576040517f08c379a000000000000000000000000000000000000000000000000000000000815260040161120990612a74565b60405180910390fd5b6001600260008773ffffffffffffffffffffffffffffffffffffffff1673ffffffffffffffffffffffffffffffffffffffff16815260200190815260200160002060020160008282546112659190612c3a565b925050819055506000600260008773ffffffffffffffffffffffffffffffffffffffff1673ffffffffffffffffffffffffffffffffffffffff1681526020019081526020016000206002015490506000620186a0846112c49190612cc1565b905060005b600260008973ffffffffffffffffffffffffffffffffffffffff1673ffffffffffffffffffffffffffffffffffffffff168152602001908152602001600020600501805490508110156113c957620186a0600260008a73ffffffffffffffffffffffffffffffffffffffff1673ffffffffffffffffffffffffffffffffffffffff1681526020019081526020016000206005018281548110611394577f4e487b7100000000000000000000000000000000000000000000000000000000600052603260045260246000fd5b90600052602060002001546113a99190612cc1565b826113b49190612c3a565b915080806113c190612e0b565b9150506112c9565b5060006040518060a0016040528088815260200187815260200186815260200183815260200160011515815250905080600260008a73ffffffffffffffffffffffffffffffffffffffff1673ffffffffffffffffffffffffffffffffffffffff16815260200190815260200160002060030160008581526020019081526020016000206000820151816000019080519060200190611468929190612111565b506020820151816001019080519060200190611485929190612111565b50604082015181600201556060820151816003015560808201518160040160006101000a81548160ff0219169083151502179055509050506040516114c9906128fc565b60405180910390207f6c3bd9c66926b40d2c9e35b613432219eb83e7d041f6aaf36240907b98eb35ca89858886604051611506949392919061292c565b60405180910390a2829350505050949350505050565b606080600080600080600260008973ffffffffffffffffffffffffffffffffffffffff1673ffffffffffffffffffffffffffffffffffffffff1681526020019081526020016000206003016000888152602001908152602001600020600001600260008a73ffffffffffffffffffffffffffffffffffffffff1673ffffffffffffffffffffffffffffffffffffffff1681526020019081526020016000206003016000898152602001908152602001600020600101600260008b73ffffffffffffffffffffffffffffffffffffffff1673ffffffffffffffffffffffffffffffffffffffff16815260200190815260200160002060030160008a815260200190815260200160002060020154600260008c73ffffffffffffffffffffffffffffffffffffffff1673ffffffffffffffffffffffffffffffffffffffff16815260200190815260200160002060030160008b815260200190815260200160002060030154600260008d73ffffffffffffffffffffffffffffffffffffffff1673ffffffffffffffffffffffffffffffffffffffff16815260200190815260200160002060060160029054906101000a900460ff16600260008e73ffffffffffffffffffffffffffffffffffffffff1673ffffffffffffffffffffffffffffffffffffffff16815260200190815260200160002060060160039054906101000a900460ff1685805461172b90612dd9565b80601f016020809104026020016040519081016040528092919081815260200182805461175790612dd9565b80156117a45780601f10611779576101008083540402835291602001916117a4565b820191906000526020600020905b81548152906001019060200180831161178757829003601f168201915b505050505095508480546117b790612dd9565b80601f01602080910402602001604051908101604052809291908181526020018280546117e390612dd9565b80156118305780601f1061180557610100808354040283529160200191611830565b820191906000526020600020905b81548152906001019060200180831161181357829003601f168201915b505050505094509550955095509550955095509295509295509295565b6000600160009054906101000a900473ffffffffffffffffffffffffffffffffffffffff1673ffffffffffffffffffffffffffffffffffffffff163373ffffffffffffffffffffffffffffffffffffffff16146118df576040517f08c379a00000000000000000000000000000000000000000000000000000000081526004016118d690612a94565b60405180910390fd5b60011515600260008573ffffffffffffffffffffffffffffffffffffffff1673ffffffffffffffffffffffffffffffffffffffff16815260200190815260200160002060060160019054906101000a900460ff1615151461193f57600080fd5b6035600a806006600260008873ffffffffffffffffffffffffffffffffffffffff1673ffffffffffffffffffffffffffffffffffffffff1681526020019081526020016000206003016000878152602001908152602001600020600301546119a79190612cc1565b6119b19190612c90565b6119bb9190612cc1565b6119c59190612cc1565b905092915050565b60008060009054906101000a900473ffffffffffffffffffffffffffffffffffffffff1673ffffffffffffffffffffffffffffffffffffffff163373ffffffffffffffffffffffffffffffffffffffff161480611a775750600160009054906101000a900473ffffffffffffffffffffffffffffffffffffffff1673ffffffffffffffffffffffffffffffffffffffff163373ffffffffffffffffffffffffffffffffffffffff16145b611ab6576040517f08c379a0000000000000000000000000000000000000000000000000000000008152600401611aad90612a54565b60405180910390fd5b611abf836109a1565b611afe576040517f08c379a0000000000000000000000000000000000000000000000000000000008152600401611af590612a74565b60405180910390fd5b600260008473ffffffffffffffffffffffffffffffffffffffff1673ffffffffffffffffffffffffffffffffffffffff168152602001908152602001600020600301600083815260200190815260200160002060040160009054906101000a900460ff16611ba1576040517f08c379a0000000000000000000000000000000000000000000000000000000008152600401611b9890612af4565b60405180910390fd5b600260008473ffffffffffffffffffffffffffffffffffffffff1673ffffffffffffffffffffffffffffffffffffffff168152602001908152602001600020600301600083815260200190815260200160002060030154905092915050565b6060600260008373ffffffffffffffffffffffffffffffffffffffff1673ffffffffffffffffffffffffffffffffffffffff1681526020019081526020016000206000018054611c4f90612dd9565b80601f0160208091040260200160405190810160405280929190818152602001828054611c7b90612dd9565b8015611cc85780601f10611c9d57610100808354040283529160200191611cc8565b820191906000526020600020905b815481529060010190602001808311611cab57829003601f168201915b50505050509050919050565b600160009054906101000a900473ffffffffffffffffffffffffffffffffffffffff1673ffffffffffffffffffffffffffffffffffffffff163373ffffffffffffffffffffffffffffffffffffffff1614611d64576040517f08c379a0000000000000000000000000000000000000000000000000000000008152600401611d5b90612a94565b60405180910390fd5b6001600260008373ffffffffffffffffffffffffffffffffffffffff1673ffffffffffffffffffffffffffffffffffffffff16815260200190815260200160002060060160036101000a81548160ff02191690831515021790555050565b600060011515600260008473ffffffffffffffffffffffffffffffffffffffff1673ffffffffffffffffffffffffffffffffffffffff16815260200190815260200160002060060160019054906101000a900460ff1615151415611e295760019050611e2e565b600090505b919050565b6001600260008373ffffffffffffffffffffffffffffffffffffffff1673ffffffffffffffffffffffffffffffffffffffff16815260200190815260200160002060060160026101000a81548160ff02191690831515021790555050565b600160009054906101000a900473ffffffffffffffffffffffffffffffffffffffff1673ffffffffffffffffffffffffffffffffffffffff163373ffffffffffffffffffffffffffffffffffffffff1614611f21576040517f08c379a0000000000000000000000000000000000000000000000000000000008152600401611f1890612a94565b60405180910390fd5b806000806101000a81548173ffffffffffffffffffffffffffffffffffffffff021916908373ffffffffffffffffffffffffffffffffffffffff16021790555050565b60008054906101000a900473ffffffffffffffffffffffffffffffffffffffff1673ffffffffffffffffffffffffffffffffffffffff163373ffffffffffffffffffffffffffffffffffffffff1614611ff2576040517f08c379a0000000000000000000000000000000000000000000000000000000008152600401611fe990612ad4565b60405180910390fd5b8260038460405161200391906128d0565b90815260200160405180910390206000019080519060200190612027929190612111565b508160038460405161203991906128d0565b9081526020016040518091039020600101819055508060038460405161205f91906128d0565b908152602001604051809103902060020181905550600160038460405161208691906128d0565b908152602001604051809103902060030160006101000a81548160ff021916908315150217905550505050565b6001600260008373ffffffffffffffffffffffffffffffffffffffff1673ffffffffffffffffffffffffffffffffffffffff16815260200190815260200160002060060160016101000a81548160ff02191690831515021790555050565b82805461211d90612dd9565b90600052602060002090601f01602090048101928261213f5760008555612186565b82601f1061215857805160ff1916838001178555612186565b82800160010185558215612186579182015b8281111561218557825182559160200191906001019061216a565b5b5090506121939190612197565b5090565b5b808211156121b0576000816000905550600101612198565b5090565b60006121c76121c284612b60565b612b2f565b9050828152602081018484840111156121df57600080fd5b6121ea848285612d97565b509392505050565b60008135905061220181612f21565b92915050565b600082601f83011261221857600080fd5b81356122288482602086016121b4565b91505092915050565b60008135905061224081612f38565b92915050565b60006020828403121561225857600080fd5b6000612266848285016121f2565b91505092915050565b60008060006060848603121561228457600080fd5b6000612292868287016121f2565b935050602084013567ffffffffffffffff8111156122af57600080fd5b6122bb86828701612207565b925050604084013567ffffffffffffffff8111156122d857600080fd5b6122e486828701612207565b9150509250925092565b6000806000806080858703121561230457600080fd5b6000612312878288016121f2565b945050602085013567ffffffffffffffff81111561232f57600080fd5b61233b87828801612207565b935050604085013567ffffffffffffffff81111561235857600080fd5b61236487828801612207565b925050606061237587828801612231565b91505092959194509250565b60008060006060848603121561239657600080fd5b60006123a4868287016121f2565b935050602084013567ffffffffffffffff8111156123c157600080fd5b6123cd86828701612207565b92505060406123de86828701612231565b9150509250925092565b600080604083850312156123fb57600080fd5b6000612409858286016121f2565b925050602061241a85828601612231565b9150509250929050565b60006020828403121561243657600080fd5b600082013567ffffffffffffffff81111561245057600080fd5b61245c84828501612207565b91505092915050565b60008060006060848603121561247a57600080fd5b600084013567ffffffffffffffff81111561249457600080fd5b6124a086828701612207565b93505060206124b186828701612231565b92505060406124c286828701612231565b9150509250925092565b60006124d883836125e9565b905092915050565b60006124ec83836128b2565b60208301905092915050565b61250181612d4f565b82525050565b600061251282612bb0565b61251c8185612beb565b93508360208202850161252e85612b90565b8060005b8581101561256a578484038952815161254b85826124cc565b945061255683612bd1565b925060208a01995050600181019050612532565b50829750879550505050505092915050565b600061258782612bbb565b6125918185612bfc565b935061259c83612ba0565b8060005b838110156125cd5781516125b488826124e0565b97506125bf83612bde565b9250506001810190506125a0565b5085935050505092915050565b6125e381612d61565b82525050565b60006125f482612bc6565b6125fe8185612c0d565b935061260e818560208601612da6565b61261781612f10565b840191505092915050565b600061262d82612bc6565b6126378185612c1e565b9350612647818560208601612da6565b61265081612f10565b840191505092915050565b600061266682612bc6565b6126708185612c2f565b9350612680818560208601612da6565b80840191505092915050565b6000612699602b83612c1e565b91507f6f6e6c7920686f73706974616c20616e6420696e737572616e6365436f72702060008301527f63616e20646f20746869730000000000000000000000000000000000000000006020830152604082019050919050565b60006126ff601683612c1e565b91507f70617469656e742064617461206e6f74206578697374000000000000000000006000830152602082019050919050565b600061273f601e83612c1e565b91507f6f6e6c7920696e737572616e6365436f72702063616e20646f207468697300006000830152602082019050919050565b600061277f601a83612c1e565b91507f70617469656e74206461746120616c72656164792065786973740000000000006000830152602082019050919050565b60006127bf600a83612c2f565b91507f696e7350617469656e74000000000000000000000000000000000000000000006000830152600a82019050919050565b60006127ff601983612c1e565b91507f6f6e6c7920686f73706974616c2063616e20646f2074686973000000000000006000830152602082019050919050565b600061283f600983612c2f565b91507f696e735265636f726400000000000000000000000000000000000000000000006000830152600982019050919050565b600061287f601883612c1e565b91507f6d65646963616c207265636f7264206e6f7420657869737400000000000000006000830152602082019050919050565b6128bb81612d8d565b82525050565b6128ca81612d8d565b82525050565b60006128dc828461265b565b915081905092915050565b60006128f2826127b2565b9150819050919050565b600061290782612832565b9150819050919050565b600060208201905061292660008301846124f8565b92915050565b600060808201905061294160008301876124f8565b61294e60208301866128c1565b61295b60408301856128c1565b61296860608301846128c1565b95945050505050565b6000604082019050818103600083015261298b8185612507565b9050818103602083015261299f818461257c565b90509392505050565b60006020820190506129bd60008301846125da565b92915050565b600060208201905081810360008301526129dd8184612622565b905092915050565b600060c08201905081810360008301526129ff8189612622565b90508181036020830152612a138188612622565b9050612a2260408301876128c1565b612a2f60608301866128c1565b612a3c60808301856125da565b612a4960a08301846125da565b979650505050505050565b60006020820190508181036000830152612a6d8161268c565b9050919050565b60006020820190508181036000830152612a8d816126f2565b9050919050565b60006020820190508181036000830152612aad81612732565b9050919050565b60006020820190508181036000830152612acd81612772565b9050919050565b60006020820190508181036000830152612aed816127f2565b9050919050565b60006020820190508181036000830152612b0d81612872565b9050919050565b6000602082019050612b2960008301846128c1565b92915050565b6000604051905081810181811067ffffffffffffffff82111715612b5657612b55612ee1565b5b8060405250919050565b600067ffffffffffffffff821115612b7b57612b7a612ee1565b5b601f19601f8301169050602081019050919050565b6000819050602082019050919050565b6000819050602082019050919050565b600081519050919050565b600081519050919050565b600081519050919050565b6000602082019050919050565b6000602082019050919050565b600082825260208201905092915050565b600082825260208201905092915050565b600082825260208201905092915050565b600082825260208201905092915050565b600081905092915050565b6000612c4582612d8d565b9150612c5083612d8d565b9250827fffffffffffffffffffffffffffffffffffffffffffffffffffffffffffffffff03821115612c8557612c84612e54565b5b828201905092915050565b6000612c9b82612d8d565b9150612ca683612d8d565b925082612cb657612cb5612e83565b5b828204905092915050565b6000612ccc82612d8d565b9150612cd783612d8d565b9250817fffffffffffffffffffffffffffffffffffffffffffffffffffffffffffffffff0483118215151615612d1057612d0f612e54565b5b828202905092915050565b6000612d2682612d8d565b9150612d3183612d8d565b925082821015612d4457612d43612e54565b5b828203905092915050565b6000612d5a82612d6d565b9050919050565b60008115159050919050565b600073ffffffffffffffffffffffffffffffffffffffff82169050919050565b6000819050919050565b82818337600083830152505050565b60005b83811015612dc4578082015181840152602081019050612da9565b83811115612dd3576000848401525b50505050565b60006002820490506001821680612df157607f821691505b60208210811415612e0557612e04612eb2565b5b50919050565b6000612e1682612d8d565b91507fffffffffffffffffffffffffffffffffffffffffffffffffffffffffffffffff821415612e4957612e48612e54565b5b600182019050919050565b7f4e487b7100000000000000000000000000000000000000000000000000000000600052601160045260246000fd5b7f4e487b7100000000000000000000000000000000000000000000000000000000600052601260045260246000fd5b7f4e487b7100000000000000000000000000000000000000000000000000000000600052602260045260246000fd5b7f4e487b7100000000000000000000000000000000000000000000000000000000600052604160045260246000fd5b6000601f19601f8301169050919050565b612f2a81612d4f565b8114612f3557600080fd5b50565b612f4181612d8d565b8114612f4c57600080fd5b5056fea26469706673582212207b150e797c029e22513c2b39e6ee5ce4674b18ba333a5518e12bde22ed47311864736f6c63430008000033",
  "immutableReferences": {},
  "source": "//SPDX-License-Identifier: UNLICENSED\r\npragma solidity ^0.8.0;\r\n\r\ncontract InsuranceContract_lixi{\r\n\r\n //EOA\r\n address private hospital_lixi;\r\n \r\n //EOA\r\n address private insuranceCorp_lixi;\r\n \r\n //\r\n struct MedicalRecord_lixi {\r\n  string symptom;\t//\r\n  string cause;\t\t//\r\n  uint day;\t\t    //\r\n  uint money;\t\t//\r\n  bool exist;     \r\n }\r\n \r\n //\r\n struct Patient_lixi {\r\n  string name;\t    //\r\n  string addr;\t    //\r\n  uint recordCnt;   //\r\n  mapping(uint => MedicalRecord_lixi) records; //\r\n  string[] medicineName; //\r\n  uint[] medicinePrice;//\r\n  bool exist;\r\n  bool buy;//\r\n  bool pay;//\r\n  bool claim;//\r\n }\r\n //\r\n struct Medicine_lixi{\r\n     string medicineName;\r\n     uint medicinePrice;\r\n     uint amount;\r\n     bool exist;\r\n }\r\n \r\n //\r\n mapping(address => Patient_lixi) private patientData_lixi;\r\n \r\n //\r\n mapping(string => Medicine_lixi) private medicineData_lixi;\r\n\r\n \r\n //()\r\n constructor (address _insurance)  {\r\n     insuranceCorp_lixi=_insurance;\r\n }\r\n \r\n // \r\n modifier onlyInsuranceCorp_lixi() {\r\n   require(msg.sender == insuranceCorp_lixi,\r\n   \"only insuranceCorp can do this\");\r\n    _;\r\n }\r\n \r\n // \r\n modifier onlyHospital_lixi() {\r\n   require(msg.sender == hospital_lixi,\r\n   \"only hospital can do this\");\r\n    _;\r\n }\r\n  \r\n // \r\n modifier onlyHospitalAndInsuranceCorp_lixi() {\r\n   require(msg.sender == hospital_lixi || msg.sender == insuranceCorp_lixi,\r\n   \"only hospital and insuranceCorp can do this\");\r\n    _;\r\n }\r\n\r\n //EOA\r\n function setHospital(address _hospital) public onlyInsuranceCorp_lixi {\r\n  hospital_lixi = _hospital;\r\n }\r\n\r\n//\r\nfunction getInsurance() public view returns(address){\r\n    return insuranceCorp_lixi;\r\n}\r\n\r\n //  \r\n function getHospital() public view returns(address) {\r\n  return hospital_lixi;\r\n }\r\n \r\n\r\n //\r\n function insPatient(address patientAddr, string memory name,string memory addr) public onlyHospital_lixi {\r\n  require(!isPatientExist(patientAddr), \"patient data already exist\");\r\n\t\t \r\n   patientData_lixi[patientAddr].name = name; \r\n   patientData_lixi[patientAddr].addr = addr;\r\n   patientData_lixi[patientAddr].recordCnt = 0;\r\n   patientData_lixi[patientAddr].exist = true;\r\n   \r\n   emit InsPatientEvnt(\"insPatient\", patientAddr);\r\n }\r\n \r\n //\r\n function isPatientExist(address patientAddr) public view returns(bool) {\r\n   return patientData_lixi[patientAddr].exist;\r\n }\r\n \r\n //\r\n function searchPatient(address addr) public view returns(string memory name){\r\n    return patientData_lixi[addr].name;\r\n }\r\n\r\n\r\n //\r\n function searchOutPatient(address addr,uint index) public view returns\r\n    (string memory symptom,string memory casue,uint day,uint money,bool,bool){\r\n    return(patientData_lixi[addr].records[index].symptom,patientData_lixi[addr].records[index].cause,\r\n    patientData_lixi[addr].records[index].day,patientData_lixi[addr].records[index].money,\r\n    patientData_lixi[addr].pay,patientData_lixi[addr].claim);\r\n }\r\n\r\n //\r\n event InsPatientEvnt(string indexed eventType, address patientAddr);\r\n \r\n //\r\n function insRecord(address patientAddr, string memory symptom, string memory cause, uint day) public onlyHospital_lixi returns(uint){\r\n   require(isPatientExist(patientAddr), \r\n\t\t \"patient data not exist\");\r\n   \r\n   //1   \r\n   patientData_lixi[patientAddr].recordCnt+=1;\r\n   uint inx = patientData_lixi[patientAddr].recordCnt;\r\n   \r\n   //\r\n   uint money=day*10**5;\r\n   for(uint i=0;i<patientData_lixi[patientAddr].medicinePrice.length;i++){\r\n       money +=patientData_lixi[patientAddr].medicinePrice[i]*10**5;\r\n   }\r\n   \r\n\r\n   //\r\n   MedicalRecord_lixi memory record = MedicalRecord_lixi({\r\n\t symptom: symptom,\t//\r\n\t cause: cause,\t\t//\r\n\t day: day,\t\t\t//\r\n\t money: money,\t\t//\t \r\n\t exist: true\t\t//\r\n   });\r\n\t\r\n   //\r\n   patientData_lixi[patientAddr].records[inx] = record;\r\n\t\r\n   //\r\n   emit InsRecordEvnt(\"insRecord\", patientAddr, inx, day, money);\r\n   \r\n   //\r\n   return inx; \r\n }\r\n \r\n //\r\n event InsRecordEvnt(string indexed eventType, address patientAddr, uint recordID, uint day, uint money);\r\n \r\n\r\n //\r\n function queryRecordCause(address patientAddr, uint recordID) public onlyHospitalAndInsuranceCorp_lixi view returns(string memory){\r\n   require(isPatientExist(patientAddr), \r\n\t\t \"patient data not exist\");\r\n\r\n   require(patientData_lixi[patientAddr].records[recordID].exist, \r\n\t\t \"medical record not exist\");\r\n   \t\r\n   return patientData_lixi[patientAddr].records[recordID].symptom;\r\n }\r\n \r\n //\r\n function queryRecordDays(address patientAddr, uint recordID) public onlyHospitalAndInsuranceCorp_lixi view returns(uint){\r\n   require(isPatientExist(patientAddr), \r\n\t\t \"patient data not exist\");\r\n\r\n   require(patientData_lixi[patientAddr].records[recordID].exist, \r\n\t\t \"medical record not exist\");\r\n   \t\r\n   return patientData_lixi[patientAddr].records[recordID].day;\r\n }\r\n \r\n\r\n //\r\n function queryRecordMoney(address patientAddr, uint recordID) public onlyHospitalAndInsuranceCorp_lixi view returns(uint){\r\n   require(isPatientExist(patientAddr), \r\n\t\t \"patient data not exist\");\r\n\r\n   require(patientData_lixi[patientAddr].records[recordID].exist, \r\n\t\t \"medical record not exist\");\r\n   \t\r\n   return patientData_lixi[patientAddr].records[recordID].money;\r\n }\r\n \r\n\r\n //\r\n function addMedicine(string memory medicineName,uint medicinePrice,uint amount) public onlyHospital_lixi{\r\n     medicineData_lixi[medicineName].medicineName=medicineName;\r\n     medicineData_lixi[medicineName].medicinePrice=medicinePrice;\r\n     medicineData_lixi[medicineName].amount=amount;\r\n     medicineData_lixi[medicineName].exist=true;\r\n }\r\n \r\n //\r\n\r\n function EnterMedicine(address patientAddr,string memory name,uint number) public onlyHospital_lixi {\r\n      require(isPatientExist(patientAddr), \"patient data not exist\");\r\n      require(medicineData_lixi[name].exist == true);\r\n      require(medicineData_lixi[name].amount>=number);\r\n      medicineData_lixi[name].amount=medicineData_lixi[name].amount-number;\r\n      patientData_lixi[patientAddr].medicineName.push(name);\r\n      patientData_lixi[patientAddr].medicinePrice.push(medicineData_lixi[name].medicinePrice *number*10**5);\r\n      \r\n }\r\n\r\n  //\r\n function searchMedicine(string memory name) public view returns(uint number){\r\n    number=medicineData_lixi[name].amount;\r\n    return number;\r\n }\r\n \r\n //\r\n function GiveMedicine(address patientAddr) public view  returns(string[] memory,uint[]memory) {\r\n    require(isPatientExist(patientAddr), \"patient data not exist\");\r\n    return (patientData_lixi[patientAddr].medicineName,patientData_lixi[patientAddr].medicinePrice);\r\n }\r\n \r\n\r\n //\r\n function BuyInsurance(address addr) public {\r\n     \r\n     patientData_lixi[addr].buy =true;\r\n }\r\n\r\n //\r\n function searchInsurance(address addr) public view returns (bool){\r\n    if (patientData_lixi[addr].buy == true){\r\n      return true;\r\n    }else{\r\n    return false;\r\n    }\r\n }\r\n\r\n //\r\n function Paymoney(address addr) public {\r\n    patientData_lixi[addr].pay=true;\r\n }\r\n\r\n //60%\r\n function claim(address addr,uint record) public view onlyInsuranceCorp_lixi returns(uint money){\r\n   require(patientData_lixi[addr].buy == true);\r\n    money = patientData_lixi[addr].records[record].money*6/10*10*53;\r\n    return money;\r\n  }\r\n\r\n //\r\n function backMoney(address addr) public onlyInsuranceCorp_lixi{\r\n   patientData_lixi[addr].claim=true;\r\n }\r\n  \r\n}\r\n",
  "sourcePath": "D:\\Homework\\Solidity\\\\B200602___20211204\\truffle\\contracts\\insurance-hospital.sol",
  "compiler": {
    "name": "solc",
    "version": "0.8.0+commit.c7dfd78e.Emscripten.clang"
  },
  "schemaVersion": "3.4.3",
  "updatedAt": "2021-12-10T03:45:58.986Z",
  "networkType": "ethereum",
  "devdoc": {
    "kind": "dev",
    "methods": {},
    "version": 1
  },
  "userdoc": {
    "kind": "user",
    "methods": {},
    "version": 1
  }
}